:1000000051C000005FC000005DC000005BC0000088
:1000100059C0000057C0000055C0000053C0000088
:1000200051C000004FC000004DC000004BC0000098
:1000300049C0000047C0000045C0000043C00000A8
:1000400041C000003FC00000A9C000003BC000004C
:1000500039C0000037C0000035C0000033C00000C8
:1000600031C000002FC000002DC000002BC00000D8
:1000700029C0000027C0000025C0000023C00000E8
:1000800021C000001FC000001DC000001BC00000F8
:1000900019C000005E026002640266026A026C021D
:1000A0007002740211241FBECFEFD0E1DEBFCDBFBE
:1000B00021E0A0E0B1E001C01D92A83BB207E1F74A
:1000C00017D276C29DCF8098ECE7F0E08081806403
:1000D0008083EAE7F0E080818460808380818260B1
:1000E00080838081806880830895ECE7F0E08081E0
:1000F0008083EAE7F0E0808180648083808186FDF0
:10010000FDCF80917800909179008F3F910519F093
:1001100010F08FEF90E00895CF93DF93E8EDF0E0DB
:1001200081E080838EEF8093E2008CE08093E30097
:1001300087E38093E4001092E7001092E6001092AB
:10014000E9001092E8001092EC001092E500CDEE6C
:10015000D0E01882AEEEB0E01C9280E188831C9261
:100160001092F4001092F6001092F7001092F00036
:100170001092F2001092F30080E88093EF0083E089
:100180008093DC008093DE0080EB8093DB0082E0D4
:10019000808310920001DF91CF9108951F920F92FA
:1001A0000FB60F9211240BB60F922F933F934F93DC
:1001B0005F936F938F939F93AF93BF93EF93FF934F
:1001C000CF93DF931F92CDB7DEB78091E00080FF21
:1001D00047C09091DE0090FF43C01092ED00EEEE1C
:1001E000F0E08081898380818F7B8083809105010D
:1001F00090910401981789F187702BE0829FC001CC
:100200001124FC01E85FFE4F20812093F000208143
:100210002093F20021812093F3002381AAEFB0E024
:100220002C9324812C9325812C9326812C93278138
:100230002C9320852C9321852C9322852C93FC01D3
:10024000E65FFE4F80818F7080648093EF00809125
:1002500005018F5F809305017CC01092030179C076
:1002600081FF77C08091DE0081FF73C080E18093C1
:10027000ED0080910101282F30E090910201291BAF
:1002800031092F773327283031050CF058C0E82F7B
:10029000E7709091EF002E2F30E04BE0E49FF001EB
:1002A0001124E05AFE4F9F704281407F942B92832D
:1002B0009091F2004091F0004770907E942B9083D3
:1002C0009091F3009183AAEFB0E09C9193839C916D
:1002D00094839C9195839C9196839C9197839C9108
:1002E00090879C9191879C9192878F5F8093010169
:1002F00040814295469547705181652F660F660F84
:10030000660F862F842B952F929596959770892B43
:10031000B1F48BE0829FF001839FF00D1124E05A2D
:10032000FE4F8381833059F498E088E10FB6F8944A
:10033000A895809360000FBE90936000FFCFEEEE13
:10034000F0E08081898380818F7D808380E8809345
:10035000EF000F90DF91CF91FF91EF91BF91AF919F
:100360009F918F916F915F914F913F912F910F903E
:100370000BBE0F900FBE0F901F901895DC01EBED98
:10038000F0E080818F7780838091030181113AC0F2
:100390001092ED008C918093F0008C918093F2008C
:1003A00011968C9111978093F30013968C9113976B
:1003B000EAEFF0E0808314968C9114978083159671
:1003C0008C911597808316968C911697808317963B
:1003D0008C911797808318968C9118978083199623
:1003E0008C91199780831A968C911A97808381E05B
:1003F0008093030112968C918F7080648093EF003C
:1004000081E026C060910401862F90E020910501D3
:10041000821B91098F7799270897C9F020E030E077
:10042000462F47708BE0489FA00111248D91FA015F
:10043000E20FF31FE85FFE4F80832F5F3F4F2B30AB
:100440003105A1F76F5F6093040181E001C080E096
:10045000EBEDF0E090819068908308958091060123
:1004600090910701892B51F485B18F7185B981E095
:1004700090E09093070180930601089585B1806E06
:1004800085B910920701109206010895E82F85B1F1
:10049000806E85B981E090E090930701809306011A
:1004A0008E2FEE0F990BAA0BBB0BFC01E154F10947
:1004B000E830F105E0F4E65BFF4F71C02F98089536
:1004C00085B18F7385B908952E98089585B18F7978
:1004D00085B908952D98089585B18F7585B90895CA
:1004E00085B18F7185B9089585B1806E85B90895FC
:1004F000CF93DF93CDB7DEB72B970FB6F894DEBF5F
:100500000FBECDBFF89408DEDEDD84B18FEF84B975
:1005100085B1806E85B9789487E4B8DF2FEF81EEDE
:1005200094E0215080409040E1F700C0000085E455
:10053000ADDF2FEF81EE94E0215080409040E1F755
:1005400000C0000083E4A2DF2FEF81EE94E0215091
:1005500080409040E1F700C0000080DF2FEF81EE87
:1005600094E0215080409040E1F700C00000898174
:100570008F7189831A828B81807F81608B831C823B
:100580002FEF89E698E1215080409040E1F700C0CC
:100590000000ABDD8C83CE010196F0DEF1CFEE0FD3
:1005A000FF1F0024001C0BBE0790F691E02D09945C
:0405B000F894FFCFED
:00000001FF
