:1000000051C000005FC000005DC000005BC0000088
:1000100059C0000057C0000055C0000053C0000088
:1000200051C000004FC000004DC000004BC0000098
:1000300049C0000047C0000045C0000043C00000A8
:1000400041C000003FC0000080C000003BC0000075
:1000500039C0000037C0000035C0000033C00000C8
:1000600031C000002FC000002DC000002BC00000D8
:1000700029C0000027C0000025C0000023C00000E8
:1000800021C000001FC000001DC000001BC00000F8
:1000900019C00000E201E401E801EA01EE01F0010B
:1000A000F401F80111241FBECFEFD0E1DEBFCDBFB8
:1000B00021E0A0E0B1E001C01D92A83BB207E1F74A
:1000C0009BD11EC29DCFCF93DF93E8EDF0E081E09E
:1000D00080838EEF8093E2008CE08093E30087E3DF
:1000E0008093E4001092E7001092E6001092E9007D
:1000F0001092E8001092EC001092E500CDEED0E0F6
:100100001882AEEEB0E01C9280E188831C921092BF
:10011000F4001092F6001092F7001092F000109286
:10012000F2001092F30080E88093EF0083E0809368
:10013000DC008093DE0080EB8093DB0082E0808334
:1001400010920001DF91CF9108951F920F920FB688
:100150000F9211240BB60F922F933F934F935F93FF
:100160006F938F939F93AF93BF93EF93FF93CF932F
:10017000DF931F92CDB7DEB78091E00080FF47C0CC
:100180009091DE0090FF43C01092ED00EEEEF0E0A3
:100190008081898380818F7B80838091050190910C
:1001A0000401981789F187702BE0829FC001112408
:1001B000FC01E85FFE4F20812093F0002081209316
:1001C000F20021812093F3002381AAEFB0E02C9369
:1001D00024812C9325812C9326812C9327812C9389
:1001E00020852C9321852C9322852C93FC01E65F9E
:1001F000FE4F80818F7080648093EF0080910501B5
:100200008F5F809305017CC01092030179C081FF4C
:1002100077C08091DE0081FF73C080E18093ED00A4
:1002200080910101282F30E090910201291B3109B2
:100230002F773327283031050CF058C0E82FE770AE
:100240009091EF002E2F30E04BE0E49FF00111245D
:10025000E05AFE4F9F704281407F942B9283909191
:10026000F2004091F0004770907E942B9083909123
:10027000F3009183AAEFB0E09C9193839C919483C7
:100280009C9195839C9196839C9197839C91908758
:100290009C9191879C9192878F5F8093010140810F
:1002A0004295469547705181652F660F660F660F20
:1002B000862F842B952F929596959770892BB1F464
:1002C0008BE0829FF001839FF00D1124E05AFE4FD6
:1002D0008381833059F498E088E10FB6F894A895AB
:1002E000809360000FBE90936000FFCFEEEEF0E0D1
:1002F0008081898380818F7D808380E88093EF0077
:100300000F90DF91CF91FF91EF91BF91AF919F91AE
:100310008F916F915F914F913F912F910F900BBEF5
:100320000F900FBE0F901F9018958091020187705B
:100330002BE0829FC0011124805A9E4F0895809126
:10034000020190910101981719F08F5F80930201CB
:10035000089581E02091010190910201291301C0CB
:1003600080E008958091060190910701892B51F456
:1003700085B18F7185B981E090E0909307018093FA
:100380000601089585B1806E85B91092070110921B
:1003900006010895E82F85B1806E85B981E090E06F
:1003A00090930701809306018E2FEE0F990BAA0BF5
:1003B000BB0BFC01E154F109E830F105E0F4E65B28
:1003C000FF4F95C02F98089585B18F7385B9089513
:1003D0002E98089585B18F7985B908952D9808953F
:1003E00085B18F7585B9089585B18F7185B90895E7
:1003F00085B1806E85B9089566DE3BD084B18FEFFC
:1004000084B985B1806E85B9789485E4C3DF2FEF18
:1004100081EE94E0215080409040E1F700C0000060
:1004200084E4B8DFEFEFF1EE24E0E150F04020404B
:10043000E1F700C0000083E4ADDF8FEF91EEE4E070
:1004400081509040E040E1F700C000008BDFFFEFFB
:1004500021EE84E0F15020408040E1F700C0000030
:1004600078DF8823E9F361DFFC0183813AD067DF1D
:10047000F7CF73986B9A74986C9AA1E9B0E08C915D
:1004800080618C938C9188608C93E0E9F0E08081AE
:100490008260808380818E7F80838081806880837A
:1004A00080818F7B808380818062808380818F7E4A
:1004B00080838C918B7F8C938C9182608C938C91B8
:1004C00081608C938FEF90E09093970080939600DB
:1004D000109299001092980010929B0010929A002E
:1004E000089590E090939900809398000895EE0FFE
:1004F000FF1F0024001C0BBE0790F691E02D09940D
:04050000F894FFCF9D
:00000001FF
