S0190000456E636F6465725F546573745F313630332E7372656323
S113000049C0000064C0000062C0000060C000007D
S11300105EC000005CC000005AC0000058C0000070
S113002056C0000054C0000052C0000050C0000080
S11300304EC000004CC000004AC00000D7C0000001
S113004046C0000044C0000042C0000040C00000A0
S11300503EC000003CC000003AC0000038C00000B0
S113006036C0000034C0000032C0000030C00000C0
S11300702EC000002CC000002AC0000028C00000D0
S113008026C0000024C0000022C0000020C00000E0
S11300901EC0000011241FBECFEFD0E1DEBFCDBFD4
S11300A011E0A0E0B1E0E0E1FDE000E00BBF02C040
S11300B007900D92A032B107D9F721E0A0E2B1E098
S11300C001C01D92A033B207E1F72CD01FC698CF10
S11300D0209884B1806E84B985B1806E85B9089505
S11300E0E1E8F0E0808183608083109285001092C3
S11300F08400EFE6F0E08081816080830895609160
S113010024017091250180E090E0CAD020E030E025
S113011040E75EE32BD193D07093230160932201D7
S1130120CB010895F894D4DF78D0DADF7894C0E076
S113013006E011E00F2EFFE0CF2EF1E0DF2EF02DD0
S11301400F2EF4E8EF2EF12CF02DD1E08091210157
S1130150813001F510922101D2DF9F938F931F9379
S11301600F93D9D1809125018F93809124018F938E
S1130170DF92CF92D0D11092250110922401F70181
S1130180118210828DB79EB708960FB6F8949EBF61
S11301900FBE8DBF80912001843099F4109220010C
S11301A0AEDF9F938F931F930F93B5D110922501C8
S11301B010922401F701118210820F900F900F907A
S11301C00F90189B0FC0C1110DC0F89480912401A9
S11301D090912501019690932501809324017894B0
S11301E0CD2FB4CF1899B2CFC0E0B0CF1F920F92E9
S11301F00FB60F9211248F9381E0809321018F9188
S11302000F900FBE0F901F901895E0ECF0E09081D6
S113021095FFFDCF8093C60008951092C5001092FB
S1130220C40086E08093C200E1ECF0E08081886045
S1130230808360E070E085E091E023C1089504D0FC
S11302406894B1118DC0089570D088F09F5790F0D4
S1130250B92F9927B751A0F0D1F0660F771F881FE7
S1130260991F1AF0BA95C9F712C0B13081F077D04E
S1130270B1E0089574C0672F782F8827B85F39F0EC
S1130280B93FCCF3869577956795B395D9F73EF446
S113029090958095709561957F4F8F4F9F4F0895EE
S11302A0E89409C097FB3EF490958095709561950C
S11302B07F4F8F4F9F4F9923A9F0F92F96E9BB27C2
S11302C09395F695879577956795B795F111F8CF3E
S11302D0FAF4BB0F11F460FF1BC06F5F7F4F8F4FA9
S11302E09F4F16C0882311F096E911C0772321F09F
S11302F09EE8872F762F05C0662371F096E8862F37
S113030070E060E02AF09A95660F771F881FDAF78D
S1130310880F9695879597F9089557FD9058440F3F
S1130320551F59F05F3F71F04795880F97FB991F50
S113033061F09F3F79F0879508951216130614060D
S1130340551FF2CF4695F1DF08C01616170618069A
S1130350991FF1CF86957105610508940895E89475
S1130360BB2766277727CB0197F908950BD078C070
S113037069D028F06ED018F0952309F05AC05FC0F8
S11303801124EECFCADFA0F3959FD1F3950F50E06F
S1130390551F629FF001729FBB27F00DB11D639F33
S11303A0AA27F00DB11DAA1F649F6627B00DA11DD9
S11303B0661F829F2227B00DA11D621F739FB00D7F
S11303C0A11D621F839FA00D611D221F749F3327EF
S11303D0A00D611D231F849F600D211D822F762F88
S11303E06A2F11249F5750408AF0E1F088234AF085
S11303F0EE0FFF1FBB1F661F771F881F91505040D1
S1130400A9F79E3F510570F014C0AACF5F3FECF3EB
S1130410983EDCF3869577956795B795F795E795BC
S11304209F5FC1F7FE2B880F911D9695879597F9CD
S1130430089597F99F6780E870E060E008959FEF62
S113044080EC089500240A94161617061806090667
S1130450089500240A941216130614060506089536
S1130460092E0394000C11F4882352F0BB0F40F4BE
S1130470BF2B11F460FF04C06F5F7F4F8F4F9F4FFE
S113048008950F931F93CF93DF93009731F4611571
S1130490710519F480E090E039C08B01EC016EE045
S11304A070E081E090E038D2FC01892B99F380E878
S11304B083830115110571F01387028781E8838313
S11304C08091260190912701892B21F4F093270133
S11304D0E09326012097C9F0D187C0878381826089
S11304E083838091280190912901892B71F4F093E1
S11304F02901E093280180912A0190912B01892BF5
S113050021F4F0932B01E0932A01CF01DF91CF91E5
S11305101F910F910895CF93DF93CDB7DEB7AE014E
S11305204B5F5F4FFA0161917191AF018091280196
S11305309091290103D0DF91CF9108952F923F929A
S11305404F925F926F927F928F929F92AF92BF92DF
S1130550CF92DF92EF92FF920F931F93CF93DF938B
S1130560CDB7DEB72C970FB6F894DEBF0FBECDBF64
S11305707C016B018A01FC0117821682838181FF51
S1130580B0C1CE0101964C01F7019381F60193FDB0
S1130590859193FF81916F01882309F49EC185326F
S11305A039F493FD859193FF81916F01853221F494
S11305B0B70190E015D3E8CF512C312C20E0203244
S11305C0A0F48B3269F030F4803259F0833269F44C
S11305D020612CC08D3239F0803339F4216026C07B
S11305E02260246023C0286021C027FD27C030ED8D
S11305F0380F3A3078F426FF06C0FAE05F9E300DDB
S11306001124532E13C08AE0389E300D1124332E4A
S113061020620CC08E3221F426FD5FC1206406C026
S11306208C3611F4206802C0883641F4F60193FD3B
S1130630859193FF81916F018111C1CF982F9F7D87
S11306409554933028F40C5F1F4FFFE3F9830DC0DA
S1130650833631F0833771F0833509F057C021C0F8
S1130660F801808189830E5F1F4F44244394512CE9
S1130670540114C03801F2E06F0E711CF801A0801F
S1130680B18026FF03C0652D70E002C06FEF7FEFDD
S1130690C5012C879AD22C0183012C852F77222E19
S11306A016C03801F2E06F0E711CF801A080B18011
S11306B026FF03C0652D70E002C06FEF7FEFC50118
S11306C02C8771D22C012C852068222E830123FCD7
S11306D019C0832D90E048165906A0F4B70180E2B2
S11306E090E07ED23A94F5CFF50127FC859127FE60
S11306F081915F01B70190E073D231103A94F1E037
S11307004F1A51084114510479F7DEC0843611F0B0
S1130710893631F5F80127FF07C060817181828134
S113072093810C5F1F4F08C060817181072E000CFC
S1130730880B990B0E5F1F4F2F76722E97FF09C0FF
S113074090958095709561957F4F8F4F9F4F20684E
S1130750722E2AE030E0A4017BD2A82EA81843C050
S1130760853729F42F7EB22E2AE030E025C0F22FFF
S1130770F97FBF2E8F36C1F018F4883579F0ADC0FB
S1130780803719F0883721F0A8C02F2F2061B22EAE
S1130790B4FE0DC08B2D8460B82E09C024FF0AC09E
S11307A09F2F9660B92E06C028E030E005C020E1F6
S11307B030E002C020E132E0F801B7FE07C06081FA
S11307C07181828193810C5F1F4F06C060817181AA
S11307D080E090E00E5F1F4FA4013AD2A82EA81823
S11307E0FB2DFF777F2E76FE0BC0372D3E7FA514A1
S11307F050F474FE0AC072FC08C0372D3E7E05C05A
S1130800BA2C372D03C0BA2C01C0B52C34FF0DC04F
S1130810FE01EA0DF11D8081803311F4397E09C097
S113082032FF06C0B394B39404C0832F867809F0D2
S1130830B39433FD12C030FF06C05A2CB31418F41D
S1130840530C5B18B32CB31460F4B70180E290E04E
S11308503C87C6D1B3943C85F6CFB31410F43B184F
S113086001C0312C34FF11C0B70180E390E03C8714
S1130870B7D13C8532FF16C031FD03C088E790E054
S113088002C088E590E0B7010CC0832F867851F050
S113089031FF02C08BE201C080E237FD8DE2B70177
S11308A090E09ED1A51430F4B70180E390E098D194
S11308B05A94F8CFAA94F401EA0DF11D8081B7018E
S11308C090E08ED1A110F6CF332009F45DCEB701AC
S11308D080E290E085D13A94F7CFF7018681978141
S11308E002C08FEF9FEF2C960FB6F894DEBF0FBEB9
S11308F0CDBFDF91CF911F910F91FF90EF90DF90CB
S1130900CF90BF90AF909F908F907F906F905F90AB
S11309104F903F902F9008950F931F93CF93DF93A1
S1130920869F8001879F100D969F100D1124C8018A
S11309300DD0EC01009721F0A80160E070E03ED1F9
S1130940CE01DF91CF911F910F910895CF93DF9343
S11309508230910510F482E090E0E0912E01F09154
S11309602F0120E030E0C0E0D0E0309711F1408169
S1130970518148175907C0F04817590761F482811B
S11309809381209719F09B838A832BC090932F0126
S113099080932E0126C02115310519F04217530703
S11309A018F49A01BE01DF01EF010280F381E02D0A
S11309B0DCCF2115310509F1281B390B2430310511
S11309C090F412968D919C9113976115710521F005
S11309D0FB019383828304C090932F0180932E01A3
S11309E0FD01329644C0FD01E20FF31F8193919300
S11309F0225031092D933C933AC020912C0130911F
S1130A002D01232B41F420910201309103013093F5
S1130A102D0120932C012091000130910101211519
S1130A20310541F42DB73EB74091040150910501C1
S1130A30241B350BE0912C01F0912D01E217F307F3
S1130A40A0F42E1B3F0B2817390778F0AC014E5F3A
S1130A505F4F2417350748F04E0F5F1F50932D0149
S1130A6040932C018193919302C0E0E0F0E0CF0128
S1130A70DF91CF9108950F931F93CF93DF93009746
S1130A8009F48CC0FC0132971382128200912E016A
S1130A9010912F010115110581F420813181820FFC
S1130AA0931F20912C0130912D012817390779F5D6
S1130AB0F0932D01E0932C0171C0D80140E050E087
S1130AC0AE17BF0750F412962D913C911397AD01C8
S1130AD02115310509F1D901F3CF9D01DA013383E1
S1130AE0228360817181860F971F8217930769F4AF
S1130AF0EC0128813981260F371F2E5F3F4F318348
S1130B0020838A819B8193838283452B29F4F093EC
S1130B102F01E0932E0142C01396FC93EE9312979B
S1130B20ED01499159919E01240F351FE217F307F6
S1130B3071F480819181840F951F029611969C9384
S1130B408E938281938113969C938E931297E0E007
S1130B50F0E0D80112968D919C911397009719F0AB
S1130B60F8018C01F6CF8D919C9198012E5F3F4F37
S1130B70820F931F20912C0130912D0128173907E2
S1130B8069F4309729F410922F0110922E0102C0BB
S1130B901382128210932D0100932C01DF91CF91C7
S1130BA01F910F910895FC01059061507040011050
S1130BB0D8F7809590958E0F9F1F0895DC0101C092
S1130BC06D9341505040E0F70895FC01615070402E
S1130BD001900110D8F7809590958E0F9F1F08956E
S1130BE00F931F93CF93DF93FB01238121FD03C058
S1130BF08FEF9FEF28C022FF16C0468157812481C2
S1130C0035814217530744F4A081B1819D012F5FC0
S1130C103F4F318320838C93268137812F5F3F4F51
S1130C203783268310C0EB01092F182F0084F18528
S1130C30E02D0995892BE1F68E819F8101969F8392
S1130C408E83812F902FDF91CF911F910F91089563
S1130C50FA01AA27283051F1203181F1E8946F93E9
S1130C606E7F6E5F7F4F8F4F9F4FAF4FB1E03ED08F
S1130C70B4E03CD0670F781F891F9A1FA11D680F2D
S1130C80791F8A1F911DA11D6A0F711D811D911D60
S1130C90A11D20D009F468943F912AE0269F1124D5
S1130CA03019305D3193DEF6CF010895462F477039
S1130CB0405D4193B3E00FD0C9F7F6CF462F4F7094
S1130CC0405D4A3318F0495D31FD4052419302D0F2
S1130CD0A9F7EACFB4E0A695979587957795679598
S1130CE0BA95C9F700976105710508959B01AC0198
S1130CF00A2E06945795479537952795BA95C9F7BF
S1130D00620F731F841F951FA01D0895F894FFCFD1
S1130D1000003001200052504D3A2025750A00434E
S1130D206F756E742076616C75653A2025750A00BE
S9030000FC
